:030000000201B743
:0100030032CA
:03000B00020106E9
:0100130032BA
:01001B0032B2
:0100230032AA
:03002B000201438C
:10002E00C00078B10000D8FCD00022C000C0017919
:10003E002D78A6D8FED9FADAF6D001D00022D293C6
:10004E0012002EC29322A2E792B5A2E692B4A2E5C6
:10005E0092B3A2E492B212004C12002EA2E392B519
:10006E00A2E292B4A2E192B3A2E092B212004C22AA
:10007E00D291020054C291020054C293C2927433C0
:10008E0012008374331200837432120083742812A8
:10009E000083740C1200837401120083C0027A0272
:1000AE00120039D00222E493600612007EA380F67D
:1000BE002244404480020083C0E0E8C4540F443020
:1000CE0012007EE8540F443012007ED0E0224243EC
:1000DE00445F636F756E7465723A2078782000E520
:1000EE008954F04401F589758CEA758AE875F4EA4D
:1000FE0075F2E8D2A9D28C22B2B73275C80075CD8E
:10010E00A975CC9A75CBA975CA9AE4F530F531D29A
:10011E00ADD2CA22A2E09282A2E19280A2E292B66F
:10012E00A2E392A7A2E492C5A2E59287A2E692A6C6
:10013E00A2E792A522C2CFB2B6C0E0C0D0D285D27D
:10014E0086E536B4000BE533120122C285053680F2
:10015E0020B4010BE534120122C28605368012B49A
:10016E00020CE535120122C2847536008003753605
:10017E00000530E53070020531E530B4641CE53120
:10018E00B40017D200B28CE4F530F531E532309080
:10019E0004240180022499D4F532D0D0D0E032C0AC
:1001AE00F9A4B0999282F8809075817F1200ED12B9
:1001BE00010975E60075E700758E11D2AF12008841
:1001CE00C0E07401141200C1D0E0C083C082C0E050
:1001DE009000DC1200B4D0E0D082D083D200753211
:1001EE000075360020A41CC0027A32120039D002EB
:1001FE0020A41030A4FDC2CAE4F530F531F532D298
:10020E00CA80033000DEC200C0E0740E141200C1BA
:10021E00D0E0C000A8321200C6D0009001ADE53289
:10022E00540F93F533E532C4540F93F534740054E0
:05023E000F930201F224
:00000001FF
