:0300000002067B7A
:0100030032CA
:03000B000205C823
:0100130032BA
:01001B0032B2
:0100230032AA
:03002B000205E4E7
:10002E00C00078B10000D8FCD00022C000C0017919
:10003E002D78A6D8FED9FADAF6D001D00022D293C6
:10004E0012002EC29322A2E792B5A2E692B4A2E5C6
:10005E0092B3A2E492B212004C12002EA2E392B519
:10006E00A2E292B4A2E192B3A2E092B212004C22AA
:10007E00D291020054C291020054C293C2927433C0
:10008E0012008374331200837432120083742812A8
:10009E000083740C1200837401120083C0027A0272
:1000AE00120039D00222E493600612007EA380F67D
:1000BE002244404480020083C0E0E8C4540F443020
:0E00CE0012007EE8540F443012007ED0E02273
:1000DC00C0E0C0D0C000C001C002E4F544F545F555
:1000EC0046F547F5487A20E53FA2E77904783CE6E7
:1000FC0033F608D9FA79057844E636D4F608D9F9F6
:10010C00DAE5D002D001D000D0D0D0E022C0E0C0DF
:10011C00D0C000C001C002E4F544F545F546F547F2
:10012C00F5487A20E53FA2E77904783CE633F608F7
:10013C00D9FA79057844C0D0E6243320E70224D0DC
:10014C0020E30224FDD0D033F608D9EADAD6D00267
:10015C00D001D000D0D0D0E022C0E0C0D0C000C0D0
:10016C0001C0027A207905C37848E613C0D030E785
:10017C000224D030E30224FDF618D0D0D9EC790457
:10018C00783FE613F618D9FADADBD002D001D000AA
:10019C00D0D0D0E022C0E0C0D0E53C2540F53CE515
:1001AC003D3541F53DE53E3542F53EE53F3543F500
:1001BC003FD0D0D0E022C0E0C0D0C3E53C9540F5A4
:1001CC003CE53D9541F53DE53E9542F53EE53F95D7
:1001DC0043F53FD0D0D0E022C0E0C0D0C3E53C9581
:1001EC0040E53D9541E53E9542E53F95439202D071
:1001FC00D0D0E022C0E0C0D0C3E540953CE54195AD
:10020C003DE542953EE543953F9202D0D0D0E022A9
:10021C00C0E0C0D0C202C3E540953C7014E54195E6
:10022C003D700EE542953E7008E543953F7002D255
:10023C0002D0D0D0E02212021C20020302020022C3
:10024C0012021C2002030201E422C0E0C0F0C0D064
:10025C00C000C001C002C003E53C8540F0A4F8A971
:10026C00F0E53D8540F0A429F9E435F0FAE53C854C
:10027C0041F0A429F9E5F03AFAE433FBE53E854078
:10028C00F0A42AFAE5F03BFBE53D8541F0A42AFAFF
:10029C00E5F03BFBE53C8542F0A42AFAE5F03BFB9C
:1002AC00E53F8540F0A42BFBE53E8541F0A42BFBFC
:1002BC00E53D8542F0A42BFBE53C8543F0A42BFBEC
:1002CC008B3F8A3E893D883CD003D002D001D000C0
:1002DC00D0D0D0F0D0E022C0E0C0D0C000C001C06F
:1002EC0002C003C0047C20E4F8F9FAFBC3E53C33FC
:1002FC00F53CE53D33F53DE53E33F53EE53F33F565
:10030C003FE833F8E933F9EA33FAEB33FBC3E8950A
:10031C0040E99541EA9542EB95434013E89540F846
:10032C00E99541F9EA9542FAEB9543FB433C01DC34
:10033C00BBD004D003D002D001D000D0D0D0E0226A
:10034C00C2A078011206627880120662E95403F5A5
:10035C004A78551206628949D2A0120459120380B8
:10036C00223099FDC299F59922E493600612036D2F
:10037C00A380F62285493C854A3D753E00753F00B9
:10038C0075402D754100754200754300120256757B
:10039C0040647541007542007543001202E37540DC
:1003AC001A7541007542007543001201A1E53CD459
:1003BC001200DCC0E07403141200C1D0E0C000A82D
:1003CC00451200C6D000C0E07405141200C1D0E084
:1003DC00C000A8441200C6D000E545C4540F4430F8
:1003EC0012036DE545540F443012036DE544C454BB
:1003FC000F443012036DE544540F443012036D74F6
:10040C000D12036D740A12036D229005A5E5445478
:10041C000F93F559E544C4540F93F55AE545540F21
:10042C0093F55B22D28C120459C28C22A2E09282E8
:10043C00A2E19280A2E292B6A2E392A7A2E492C5B4
:10044C00A2E59287A2E692A6A2E792A522C0027A22
:10045C00BE120039D00279DE78A6D8FED9FA4387CD
:10046C0080759852759B00759AF4759B1E2220B767
:10047C0011C0027A32120039D00220B70530B7FD14
:10048C008003020494020A6922534F414B205445C5
:10049C004D503A20207878784300534F414B2054EC
:1004AC00494D453A202078787873005245464C4F98
:1004BC00572054454D502078787843005245464C8F
:1004CC004F572054494D4520787878730020203EB2
:1004DC0020796573203C20206E6F20202000202086
:1004EC00202079657320203E206E6F203C20002058
:1004FC002053415645204348414E4745533F200029
:10050C0020202020202020202020202020202020DF
:10051C000020202078787843202078787873202069
:10052C002000202052414D5020544F20534F414B1E
:10053C00202000202020202020534F414B20202021
:10054C00202020002052414D5020544F205245462F
:10055C004C4F57200020202020205245464C4F570E
:10056C00202020202000202020202020434F4F4CF2
:10057C002020202020200020594F55564520474F41
:10058C0054204F4E4520200020202020434F4F4C1C
:10059C0020424F592020202000C0F9A4B09992820B
:1005AC00F88090E58954F04401F589758CEA758AD8
:1005BC00E875F4EA75F2E8D2A9D28C22B2C432758D
:1005CC00C80075CDA975CC9A75CBA975CA9AE4F5F6
:1005DC0030F531D2ADD2CA22C2CFB2B6C0E0C0D053
:1005EC00D285D286D284E558B4000BE55912043872
:1005FC00C2850558801FB4010BE55A120438C28617
:10060C0005588011B4020BE55B120438C2840558FE
:10061C0080037558000530E53070020531C3E530B4
:10062C009554E53195559283E530B4E81FE531B426
:10063C00031AD200E533B49907E5512401D4F551DE
:10064C00E5332401D4F533E4F530F531D0D0D0E0E6
:10065C0032D2A2C2A322C0E079007A08E833F89221
:10066C00A1D2A3A2A2E933F9C2A3DAF0D0E0227599
:10067C00817F1205AF1205CB12008875E60075E775
:10068C0000D2AFD200753430753600753800753A2B
:10069C0000754D00754E00754F0075500075540077
:1006AC00755500755601755701C28CC2C47558003A
:1006BC00C0E07401141200C1D0E0C083C082C0E05D
:1006CC0090050C1200B4D0E0D082D083C0E074014D
:1006DC00141200BFD0E0C083C082C0E090050C12A1
:1006EC0000B4D0E0D082D083C0E07401141200C1F9
:1006FC00D0E0C083C082C0E09004951200B4D0E07A
:10070C00D082D083208111C0027A32120039D002FB
:10071C002081053081FD800302073AE534B495074A
:10072C00E54D2401D4F54DE5342405D4F534C0E071
:10073C00740E141200C1D0E0C000A8341200C6D050
:10074C0000C0E0740D141200C1D0E0E54D4430122D
:10075C00007E20A411C0027A32120039D00220A4EB
:10076C000530A4FD8003020710C0E07401141200D0
:10077C00C1D0E0C083C082C0E09004A61200B4D007
:10078C00E0D082D083208111C0027A32120039D09D
:10079C00022081053081FD80030207BBE536B4954C
:1007AC0007E54E2401D4F54EE5362405D4F536C0C4
:1007BC00E0740E141200C1D0E0C000A8361200C6BE
:1007CC00D000C0E0740D141200C1D0E0E54E4430EE
:1007DC0012007E20A411C0027A32120039D00220FD
:1007EC00A40530A4FD8003020791C0E0740114122B
:1007FC0000C1D0E0C083C082C0E09004B71200B446
:10080C00D0E0D082D083208111C0027A321200391C
:10081C00D0022081053081FD800302083CE538B40C
:10082C009507E54F2401D4F54FE5382405D4F53868
:10083C00C0E0740E141200C1D0E0C000A838120041
:10084C00C6D000C0E0740D141200C1D0E0E54F44D6
:10085C003012007E20A411C0027A32120039D0026C
:10086C0020A40530A4FD8003020812C0E07401141A
:10087C001200C1D0E0C083C082C0E09004C8120056
:10088C00B4D0E0D082D083208111C0027A32120021
:10089C0039D0022081053081FD80030208BDE53A84
:1008AC00B49907E5502401D4F550E53A2401D4F568
:1008BC003AC0E0740E141200C1D0E0C000A83A1285
:1008CC0000C6D000C0E0740D141200C1D0E0E55099
:1008DC00443012007E20A411C0027A32120039D0AA
:1008EC000220A40530A4FD8003020893C0E074012B
:1008FC00141200C1D0E0C083C082C0E09004FB128F
:10090C0000B4D0E0D082D083208111C0027A3212A0
:10091C000039D0022081053081FD8003020930E5C9
:10092C0052F4F552B40052C0E07401141200BFD05E
:10093C00E0C083C082C0E09004EA1200B4D0E0D0E2
:10094C0082D08320A411C0027A32120039D0022046
:10095C00A40530A4FD80030208F8C0E07401141251
:10096C0000BFD0E0C083C082C0E090050C1200B480
:10097C00D0E0D082D0830206BCC0E0740114120017
:10098C00BFD0E0C083C082C0E09004D91200B4D0C4
:10099C00E0D082D08320A411C0027A32120039D068
:1009AC000220A40530A4FD80030208F8C0E0740105
:1009BC00141200C1D0E0C083C082C0E090051D12AB
:1009CC0000B4D0E0D082D083C0E07401141200BF18
:1009DC00D0E0C083C082C0E090050C1200B4D0E01F
:1009EC00D082D08375510075330012034C1204165B
:1009FC0012047AE557B556082401D4F55712043081
:100A0C00E556B4017FC0E0740B141200C1D0E0C0F5
:100A1C0000A8331200C6D000C0E0740A141200C142
:100A2C00D0E0E551443012007EC0E0740114120095
:100A3C00BFD0E0C083C082C0E090052E1200B4D0BD
:100A4C00E0D082D0837554E8755503E533B4601C4F
:100A5C00E54DB40017745095445002800F75570142
:100A6C007556017554007555000206BCE54DB5452B
:100A7C0007E534B5440280030209F6755602753356
:100A8C0000755100E556B40259C0E0740B14120005
:100A9C00C1D0E0C000A8331200C6D000C0E0740A78
:100AAC00141200C1D0E0E551443012007EC0E07455
:100ABC0001141200BFD0E0C083C082C0E090053F9B
:100ACC001200B4D0E0D082D0837554FA755500E58D
:100ADC0051B54EA4E533B5369F7556037533007585
:100AEC005100E556B4035EC0E0740B141200C1D083
:100AFC00E0C000A8331200C6D000C0E0740A141283
:100B0C0000C1D0E0E551443012007EC0E074011405
:100B1C001200BFD0E0C083C082C0E090055012002C
:100B2C00B4D0E0D082D0837554E8755503E54FB549
:100B3C004507E544B5380280030209F6755604757D
:100B4C003300755100E556B40459C0E0740B14120F
:100B5C0000C1D0E0C000A8331200C6D000C0E074C1
:100B6C000A141200C1D0E0E551443012007EC0E0FE
:100B7C007401141200BFD0E0C083C082C0E09005A5
:100B8C00611200B4D0E0D082D083755464755500E6
:100B9C00E550B551A4E533B53A9F7556057533004C
:100BAC00755100C0E0740B141200C1D0E0C000A855
:100BBC00331200C6D000C0E0740A141200C1D0E099
:100BCC00E551443012007EC0E07401141200BFD015
:100BDC00E0C083C082C0E09005721200B4D0E0D0B7
:100BEC0082D083755400755500E54FB54551E544E9
:100BFC00B4304CC0E07401141200BFD0E0C083C00C
:100C0C0082C0E09005941200B4D0E0D082D083C0B2
:100C1C00E07401141200C1D0E0C083C082C0E09027
:100C2C0005831200B4D0E0D082D0831204301204B9
:100C3C003012043012043012043012043080FE02E0
:020C4C0009F6A7
:00000001FF
